:10000000B5EF11F00000000000EF00F0000000006C
:0A0010000000000000000000F3D71C
:0E001C00010133B102D08B9801D08B88120005
:0E002A00010133B102D08B9601D08B861200FB
:0E003800010133B102D08D9601D08D861200E9
:0E004600010133B102D0899401D089841200E7
:0E005400010133B102D08B9C01D08B8C1200C5
:0E006200010133B102D08B9401D08B841200C7
:0E007000010133B102D08B9A01D08B8A1200AD
:0E007E00010133B102D08B9E01D08B8E120097
:0E008C00010133B102D08A9201D08A821200A3
:0E009A00010133B102D08D9401D08D8412008B
:0E00A800010133B102D08F9201D08F8212007D
:0E00B600010133B102D08F9401D08F8412006B
:0E00C400010133B102D08B9801D08B8812005D
:0E00D200010133B102D08B9601D08B86120053
:0E00E000010133B102D08A9401D08A8412004B
:0E00EE00010133B102D08B9801D08B88120033
:0E00FC00010133B102D08B9601D08B86120029
:0E010A00010133B102D08F9001D08F8012001E
:0E011800010133B102D08B9A01D08B8A120004
:0E012600010133B102D08B9801D08B881200FA
:0E013400010133B102D08B9601D08B861200F0
:0E014200010133B102D08B9201D08B821200EA
:0E015000010133B102D08B9A01D08B8A1200CC
:0E015E00010133B102D08D9001D08D801200CE
:10016C000F0121B302D00000FBD733C11CFF1200DA
:0E017C00ACB202D00000FCD733C1ADFF1200C0
:0E018A00010133B102D08B9001D08B801200A6
:0E019800010133B102D0899001D0898012009C
:0E01A600010133B102D08A9001D08A8012008C
:0E01B400010133B102D08D9201D08D82120074
:0E01C200010133B102D0899801D08988120062
:0E01D000010133B102D08B9801D08B88120050
:0E01DE00010133B102D08B9601D08B86120046
:0E01EC00010133B102D0899201D08982120044
:0E01FA00010133B102D08B9C01D08B8C12001E
:0E020800010133B102D08B9E01D08B8E12000B
:0E021600010133B102D08B9801D08B88120009
:0E022400010133B102D08B9601D08B861200FF
:1002320068B409D01F0E6614016E0150000A03E172
:0A024200010E006E01D0006A1200E8
:10024C00F250026EF29E0500FF6A0150FE6E0050E5
:08025C00FD6E02BEF28E1200DD
:10026400C7B409D01F0EC514016E0150000A03E182
:0A027400010E006E01D0006A1200B6
:0A027E00000E82B0010E006E1200A7
:0A028800000E80B0010E006E12009F
:0C029200000E0F0121B3010E006E1200DF
:0A029E00000E84B0010E006E120085
:0A02A800000E82BA010E006E120073
:0A02B200000E82B8010E006E12006B
:0A02BC00000E82B6010E006E120063
:0A02C600000EA4BA010E006E120033
:0A02D000000E82BC010E006E120049
:1002DA00A1C02FF1A2C030F1A3C031F1A4C032F104
:1002EA0001012D6B2E6B2E51120802E12D518E0841
:1002FA0008E39ADF005201E004D001012D4B2E2BB6
:10030A00F2D70101120E2E5D02E18F0E2D5D03E37D
:10031A007B0E006E26D0668066A022D00001A15115
:10032A00A211A311A4111BE001012F5130113111A7
:10033A0032110EE1CBC0E1FFCCC0E2FF050EE66E42
:10034A00C9C000F0CAC001F07CDF010E006E09D0FE
:10035A00010E01012F5F000E305B315B325BDCD78F
:04036A00006A120013
:0A036E00000E82B6010E006E1200B0
:10037800AECF01F0ABA202D0AB98AB8801C000F0C1
:02038800120061
:10038A001DCF01F00F0122A302D02299228901C0B8
:04039A0000F012005D
:0A039E00000EACB2010E006E12005A
:0A03A800000E9EBA010E006E120056
:0A03B200000E82B6010E006E12006C
:0A03BC00000E84B2010E006E120064
:0A03C600000E80B8010E006E120058
:0A03D000000E82B8010E006E12004C
:0A03DA00000E81B2010E006E120049
:0A03E400000E82B4010E006E12003C
:0A03EE00000E82BA010E006E12002C
:0A03F800000E80B2010E006E12002C
:0A040200000E82BE010E006E120013
:0A040C00000E81B0010E006E120018
:0A041600000E82B2010E006E12000B
:0A042000000E82BC010E006E1200F7
:0A042A00000E82BE010E006E1200EB
:0A043400000E82B8010E006E1200E7
:0A043E00000E82B6010E006E1200DF
:0A044800000E82B8010E006E1200D3
:10045200A1C02FF1A2C030F1A3C031F1A4C032F18A
:10046200A19A6686A1BA20D00001A151A211A311BE
:10047200A41119E001012F513011311132110CE197
:10048200CBC0E1FFCCC0E2FF030EE66EC9C000F0B4
:10049200CAC001F0DADE08D0010E01012F5F000EA2
:1004A200305B315B325BDED701016ACF2EF12D5119
:1004B200000A02E1668A01D0669AA19A6688A1C002
:1004C2002FF1A2C030F1A3C031F1A4C032F1A1BA20
:1004D20020D00001A151A211A311A41119E0010120
:1004E2002F513011311132110CE1CBC0E1FFCCC0E0
:1004F200E2FF030EE66EC9C000F0CAC001F0A5DE3D
:1005020008D0010E01012F5F000E305B315B325BC0
:08051200DED72EC100F012003B
:10051A00A19A2DC16AFFA1C02EF1A2C02FF1A3C0DA
:10052A0030F1A4C031F168A422D00001A151A21176
:10053A00A311A4111BE001012E512F113011311109
:10054A000EE1CBC0E1FFCCC0E2FF040EE66EC9C0EB
:10055A0000F0CAC001F075DE010E006E3BD0010E3C
:10056A0001012E5F000E2F5B305B315BDCD7A1C02F
:10057A002EF1A2C02FF1A3C030F1A4C031F1A1BA6B
:10058A0022D00001A151A211A311A4111BE0010163
:10059A002E512F11301131110EE1CBC0E1FFCCC029
:1005AA00E2FF040EE66EC9C000F0CAC001F049DEDF
:1005BA00010E006E0FD0010E01012E5F000E2F5B9F
:1005CA00305B315BDCD766BC02D0006A03D066843C
:0605DA00020E006E12008B
:1005E0009E962DC1C9FFA5C02EF1A6C02FF1A7C0B0
:1005F00030F1A8C031F1C7A422D00001A551A61145
:10060000A711A8111BE001012E512F11301131113A
:100610000EE1C3C0E1FFC4C0E2FF040EE66EC1C03C
:1006200000F0C2C001F012DE010E006E3BD0010EE0
:1006300001012E5F000E2F5B305B315BDCD7A5C064
:100640002EF1A6C02FF1A7C030F1A8C031F19EB69F
:1006500022D00001A551A611A711A8111BE001018C
:100660002E512F11301131110EE1C3C0E1FFC4C072
:10067000E2FF040EE66EC1C000F0C2C001F0E6DD8C
:10068000010E006E0FD0010E01012E5F000E2F5BD8
:10069000305B315BDCD7C5BC02D0006A03D0C584B7
:0606A000020E006E1200C4
:0A06A600000E82B8010E006E120073
:1006B000A5C02FF1A6C030F1A7C031F1A8C032F11A
:1006C0009E96C5869EB620D00001A551A611A71101
:1006D000A81119E001012F513011311132110CE133
:1006E000C3C0E1FFC4C0E2FF030EE66EC1C000F06C
:1006F000C2C001F0ABDD08D0010E01012F5F000E7A
:10070000305B315B325BDED70101C9CF2EF12D5159
:10071000000A02E1C58A01D0C59A9E96C588A5C087
:100720002FF1A6C030F1A7C031F1A8C032F19EB6BA
:1007300020D00001A551A611A711A81119E00101AF
:100740002F513011311132110CE1C3C0E1FFC4C08F
:10075000E2FF030EE66EC1C000F0C2C001F076DD1C
:1007600008D0010E01012F5F000E305B315B325B60
:08077000DED72EC100F01200DB
:040778006684120081
:10077C00A5C02FF1A6C030F1A7C031F1A8C032F14D
:10078C0001012D6B2E6B2E51120802E12D518E089A
:10079C0008E362DD005201E004D001012D4B2E2B49
:1007AC00F2D70101120E2E5D02E18F0E2D5D03E3D7
:1007BC007B0E006E26D0C580C5A022D00001A551AD
:1007CC00A611A711A8111BE001012F5130113111F5
:1007DC0032110EE1C3C0E1FFC4C0E2FF050EE66EAC
:1007EC00C1C000F0C2C001F02BDD010E006E09D0BB
:1007FC00010E01012F5F000E305B315B325BDCD7E9
:04080C00006A12006C
:10081000A1C02DF1A2C02EF1A3C02FF1A4C030F1D0
:10082000668266A220D00001A151A211A311A411D9
:1008300019E001012D512E112F1130110CE1CBC007
:10084000E1FFCCC0E2FF060EE66EC9C000F0CAC0F0
:1008500001F0FCDC08D0010E01012D5F000E2E5BC3
:080860002F5B305BDED71200B4
:10086800A5C02DF1A6C02EF1A7C02FF1A8C030F168
:10087800C582C5A220D00001A551A611A711A811B3
:1008880019E001012D512E112F1130110CE1C3C0B7
:10089800E1FFC4C0E2FF060EE66EC1C000F0C2C0B0
:1008A80001F0D0DC08D0010E01012D5F000E2E5B97
:0808B8002F5B305BDED712005C
:0408C000C5841200D9
:0A08C400000E82B6010E006E120055
:0A08CE00000E82B6010E006E12004B
:0A08D800000E82B8010E006E12003F
:0A08E200000E84B4010E006E120037
:0A08EC00000E80B4010E006E120031
:0A08F600000E84B6010E006E120021
:0A090000000E86B4010E006E120016
:0A090A00000E86B2010E006E12000E
:0A091400000E81B4010E006E120007
:0A091E00000E82BA010E006E1200F6
:0A092800000E86B0010E006E1200F2
:0E093200026A016A006A086A036A000E120077
:100940000B840BAEABEF04F0010E036E026A016A7A
:0A095000006A0A360232FF0E1200A0
:08095A000AAE029E000E12001D
:100962006C0E0001F66F010EF76F330EF86F010E79
:10097200F96F8A0ED66F030ED76F000ED86F000E76
:10098200D96FC60EDA6F020EDB6F000EDC6F000E3F
:10099200DD6F920ED26F020ED36F000ED46F000E77
:1009A200D56F0F01218B900E226F98849892A4AA82
:0A09B20003D01DCF00F0FBD71200A8
:0809BC000B6A0B86FF0E12000E
:1009C4000101236B246BCEC000F0CFC001F03CDCEE
:1009D40000C023F1000E0101246F23C100F024C1E3
:0409E40001F012000C
:1009E80001012B6B2C6B24C129F125C12AF123C1EC
:1009F80000F000360090E0C0E1FFE1C0E2FF00C077
:100A0800E6FFDEC000F0DFC001F01CDC0050010191
:100A18002B13000E2C1326C100F027C101F0010E84
:100A2800265F000E275B0050011018E0E0C0E1FFD0
:100A3800E1C0E2FF29C1E9FF2AC1EAFFEECFE6FFE4
:100A4800DEC000F0DFC001F026EC01F0005001012B
:100A58002B13000E2C13294B2A2BDDD72851000A03
:100A680006E1EEC000F0EFC001F026EC01F0010154
:100A78002851010A06E1F2C000F0F3C001F026ECAB
:0C0A880001F02BC100F02CC101F01200A5
:100A9400086A096A100E0C6E0134083609360450CF
:100AA400085E0550D8A0053C095ED8B007D00450B4
:100AB40008260550D8B0053C0926D89000360136E2
:060AC4000C2EEAD712001F
:100ACA007C0E0001F66F010EF76F330EF86F010E00
:100ADA00F96F780ED66F030ED76F000ED86F000E1F
:100AEA00D96FA80EDA6F030EDB6F000EDC6F000EF3
:100AFA00DD6F9E0ED26F030ED36F000ED46F000E01
:100B0A00D56FAC8A900EAB6E948E949C9EAA03D03D
:080B1A00AECF00F0FBD7120082
:100B220001012B6B2C6B24C129F125C12AF123C1B0
:100B320000F0003600900080E0C0E1FFE1C0E2FF7B
:100B420000C0E6FFDEC000F0DFC001F026EC01F0DD
:100B5200005001012B13000E2C13010E265F000E14
:100B6200275B2651271116E0ECC0E1FFEDC0E2FF42
:100B7200010EE66EEAC000F0EBC001F026EC01F0D7
:100B820029C1E1FF2AC1E2FF00C0E6FF0101294BB2
:100B92002A2BE3D7ECC0E1FFEDC0E2FFE66AEAC030
:100BA20000F0EBC001F026EC01F029C1E1FF2AC1FF
:100BB200E2FF00C0E6FF01012851000A06E1EEC093
:100BC20000F0EFC001F026EC01F001012851010A0A
:100BD20006E1F2C000F0F3C001F026EC01F02BC1F7
:080BE20000F02CC101F012002B
:100BEA00640E0001BD6F020EBE6F000EBF6F000ED5
:100BFA00C06F7C0EC56F070EC66F000EC76F000E62
:100C0A00C86F680EB96F080EBA6F000EBB6F000E80
:100C1A00BC6FB00EA96F060EAA6F2D0EAB6F010E38
:100C2A00AC6FE00EAD6F050EAE6F2D0EAF6F010EFD
:100C3A00B06FC00EB56F080EB66F000EB76F000E1C
:100C4A00B86F949894968B988B9694889486C79E3E
:080C5A00C79C380EC66E1200A3
:100C62000C6A0E6A0250D8A44AEF06F001C002F0E4
:100C720000C001F0006A0E860250D8A44AEF06F0C6
:100C820001C002F0016A0E960E880250D8B45CEFE1
:100C920006F00E50035ED8A4D8A061EF06F0D890FB
:100CA20002BE66EF06F0003601360236032E51EF21
:100CB20006F061EF06F0010E0C6E3ADE69EF06F007
:100CC200020E0C6E3CDE69EF06F0040E0C6E44DE82
:020CD20012000E
:100CD4000B820BAE74EF06F00368026801680068CB
:080CE4000A360232FF0E120075
:100CEC00B3C0E1FFB4C0E2FF1CC1E9FF1DC1EAFFC4
:100CFC00EECFE6FFB1C000F0B2C001F026EC01F07F
:040D0C00006A120067
:100D10001CC11FF11DC120F11EC121F10BD0A00E7D
:100D2000C86E63DF44D0280EC86E5FDF40D0040E6B
:100D3000006E3FD01FC1F6FF20C1F7FF21C1F8FFB1
:100D40000900F5CF01F00900F5CF02F00900F5CF59
:100D500003F00900F5CF04F00450000A08E1035045
:100D6000010A05E10250860A02E10150A00AD7E01B
:100D70001FC1F6FF20C1F7FF21C1F8FF0900F5CF21
:100D800001F00900F5CF02F00900F5CF03F00900EA
:100D9000F5CF04F00450000A08E10350060A05E10B
:100DA00002501A0A02E10150800ABDE0C0D7000ECD
:040DB000006E1200BF
:100DB400090E0B6E1E0E0C6EE40E0D6E0D2EFED77C
:0C0DC4000C2EFCD70B2EFAD700001200FA
:100DD0001CC11FF11DC120F11EC121F10BD0A00EBD
:100DE000C86E03DF44D0280EC86EFFDE40D0040E6C
:100DF000006E3FD01FC1F6FF20C1F7FF21C1F8FFF1
:100E00000900F5CF01F00900F5CF02F00900F5CF98
:100E100003F00900F5CF04F00450000A08E1035084
:100E2000010A05E10250860A02E10150A00AD7E05A
:100E30001FC1F6FF20C1F7FF21C1F8FF0900F5CF60
:100E400001F00900F5CF02F00900F5CF03F0090029
:100E5000F5CF04F00450000A08E10350060A05E14A
:100E600002501A0A02E10150800ABDE0C0D7000E0C
:040E7000006E1200FE
:100E740021D0CF0EAF6EAC9426DE6BD0670EAF6E72
:100E8400AC9421DE66D0CF0EAF6EAC841CDE61D094
:100E9400670EAF6EAC8417DE5CD0440EAF6EAC84CC
:100EA40012DE57D0220EAF6EAC840DDE52D0060E89
:100EB400006E59D0000E006E01011F1908E10050A8
:100EC4001E1905E1120E1D1902E11C51C00AD1E0E0
:100ED400000E006E1F1908E100501E1905E1250ED1
:100EE4001D1902E11C51800AC9E0000E006E1F1991
:100EF40008E100501E1905E14B0E1D1902E11C51B9
:100F0400000AC1E0000E006E1F1908E100501E190E
:100F140005E1960E1D1902E11C51000AB9E0000E0C
:100F2400006E1F1908E100501E1905E1E10E1D199C
:100F340002E11C51000AB1E01F51000A08E11E51F0
:100F4400010A05E11D51C20A02E11C51000AAAE08E
:100F5400AED77C0E0001B16F010EB26F330EB36FCA
:080F6400010EB46F006A1200D7
:100F6C0038D00F0120870D0E1F6F040E1E6F2185C8
:100F7C00F2DC7ED00F012087060E1F6F820E1E6FD3
:100F8C002185E9DC75D00F012087030E1F6F400E01
:100F9C001E6F2185E0DC6CD00F012087010E1F6FC6
:100FAC00A00E1E6F2185D7DC63D00F012087010EA8
:100FBC001F6F150E1E6F2185CEDC5AD00F012087B6
:100FCC001F6B8A0E1E6F2185C6DC52D0060E006E7A
:100FDC0059D0000E006E01011F1908E100501E19B6
:100FEC0005E1120E1D1902E11C51C00ABAE0000EF7
:100FFC00006E1F1908E100501E1905E1250E1D1980
:10100C0002E11C51800AB6E0000E006E1F1908E1C7
:10101C0000501E1905E14B0E1D1902E11C51000A6E
:10102C00B2E0000E006E1F1908E100501E1905E118
:10103C00960E1D1902E11C51000AAEE0000E006E66
:10104C001F1908E100501E1905E1E10E1D1902E1FE
:10105C001C51000AAAE01F51000A08E11E51010AA6
:10106C0005E11D51C20A02E11C51000AA7E0AED7EE
:10107C006C0E0001B16F010EB26F330EB36F010E27
:06108C00B46F006A1200BF
:1010920021D0CF0EAF6EAC9417DD6BD0670EAF6E62
:1010A200AC9412DD66D0CF0EAF6EAC840DDD61D094
:1010B200670EAF6EAC8408DD5CD0440EAF6EAC84BC
:1010C20003DD57D0220EAF6EAC84FEDC52D0060E8A
:1010D200006E59D0000E006E01011F1908E1005088
:1010E2001E1905E1120E1D1902E11C51C00AD1E0C0
:1010F200000E006E1F1908E100501E1905E1250EB1
:101102001D1902E11C51800AC9E0000E006E1F1970
:1011120008E100501E1905E14B0E1D1902E11C5198
:10112200000AC1E0000E006E1F1908E100501E19EE
:1011320005E1960E1D1902E11C51000AB9E0000EEC
:10114200006E1F1908E100501E1905E1E10E1D197C
:1011520002E11C51000AB1E01F51000A08E11E51D0
:10116200010A05E11D51C20A02E11C51000AAAE06E
:10117200AED77C0E0001B16F010EB26F330EB36FAA
:08118200010EB46F006A1200B7
:10118A00300E01011C25006E000E1D21016E000E9D
:10119A001E21026E1C0E0024F66E000E0120F76E50
:1011AA00000E0220F86E0900F5CFE6F00900F5CF2F
:1011BA00E7F00900F5CFE8F00900F5CFE9F0040EF1
:1011CA001C25F66E000E1D21F76E000E1E21F86E0C
:1011DA000900F5CFE2F00900F5CFE3F00900F5CFF9
:0A11EA00E4F00900F5CFE5F0120073
:1011F4001CC1F6FF1DC1F7FF1EC1F8FF0900F5CFA2
:10120400CEF00900F5CFCFF00900F5CFD0F00900FA
:10121400F5CFD1F0040E01011C25F66E000E1D2140
:10122400F76E000E1E21F86E0900F5CFEEF00900EE
:10123400F5CFEFF00900F5CFF0F00900F5CFF1F0AC
:10124400080E1C25F66E000E1D21F76E000E1E21E1
:10125400F86E0900F5CFF2F00900F5CFF3F00900BC
:10126400F5CFF4F00900F5CFF5F00C0E1C25F66E61
:10127400000E1D21F76E000E1E21F86E0900F5CF39
:10128400DEF00900F5CFDFF00900F5CFE0F009004A
:10129400F5CFE1F0100E1C25F66E000E1D21F76E41
:1012A400000E1E21F86E0900F5CFEAF00900F5CF13
:1012B400EBF00900F5CFECF00900F5CFEDF01200EA
:1012C40027D0CF0EAF6EAC9465EC05F070D0670EEE
:1012D400AF6EAC9465EC05F06AD0CF0EAF6EAC8403
:1012E40065EC05F064D0670EAF6EAC8465EC05F078
:1012F4005ED0440EAF6EAC8465EC05F058D0220E7F
:10130400AF6EAC8465EC05F052D0060E006E59D079
:10131400000E006E01011F1908E100501E1905E1BD
:10132400120E1D1902E11C51C00ACBE0000E006E22
:101334001F1908E100501E1905E1250E1D1902E1CF
:101344001C51800AC4E0000E006E1F1908E1005011
:101354001E1905E14B0E1D1902E11C51000ABDE0E6
:10136400000E006E1F1908E100501E1905E1960ECB
:101374001D1902E11C51000AB6E0000E006E1F198F
:1013840008E100501E1905E1E10E1D1902E11C518E
:10139400000AAFE01F51000A08E11E51010A05E1ED
:1013A4001D51C20A02E11C51000AA9E0AED77C0E0D
:1013B4000001B16F010EB26F330EB36F010EB46F43
:0413C400006A1200A9
:1013C800086A096A000E0762036469EF0AF00250AE
:1013D80006180A6E075003267E0ED8A0FAEF09F009
:1013E800035ED8B06EEF0AF0FEEF09F0035ED8A0F6
:1013F80073EF0AF0028E068E02C00EF001C00BF0E9
:1014080000C00DF000500402F4CF0CF001500502AA
:10141800F4CF00F0F3CF08F00402F3500C26F45098
:101428000822000E00220D500502F3500C26F4503D
:101438000822000E002202500402F3500826F4503D
:10144800002202500502016A000E0122F350002614
:10145800F45001220D500602F3500826F4500022E1
:10146800026A000E012202220B500602F3500026E7
:10147800F4500122000E02220E500602F3500126FB
:10148800F450022202BE51EF0AF008360036013647
:1014980002360306D8B473EF0AF064EF0AF0D88076
:1014A800800E08640030000E002201220222D8A01B
:1014B80064EF0AF0023201320032034A6EEF0AF09A
:1014C8000AAE029E000E76EF0AF0010E99EC04F0C7
:1014D80076EF0AF0020E6AEC06F076EF0AF0040ED8
:0614E800A0EC04F012006C
:1014EE000101206B050E205D0AE220511E25E16EE2
:1014FE00000E1F21E26E200EE66E202BF3D7205138
:10150E001E25E16E000E1F21E26EE66A20072051B5
:10151E001E25216F000E1F21226F0A0E046E000E73
:10152E00056E1CC100F01DC101F04AEC05F008C0AB
:10153E0000F009C001F0300E002621C1E1FF22C1EA
:10154E00E2FF00C0E6FF0A0E046E000E056E1CC11F
:10155E0000F01DC101F04AEC05F000C01CF101C005
:10156E001DF1000E011802E1000E001801E102D07B
:06157E002007CDD712008A
:1015840059D001011DB102D0929001D092800F0177
:10159400259176D001011DB102D0949001D09480A0
:1015A4006FD001011DB102D0969001D0968068D011
:1015B40001011DB102D0949601D0948661D001013D
:1015C4001DB102D0949801D094885AD001011DB164
:1015D40002D0949A01D0948A53D001011DB102D053
:1015E400949201D094824CD001011DB102D0939009
:1015F40001D0938045D001011DB102D0949E01D049
:10160400948E3ED001011DB102D0949C01D0948CE3
:1016140037D001011DB102D0949601D0948630D008
:1016240001011DB102D0949801D0948829D0010EF3
:10163400006E28D001011C51000AA3E01C51010ACC
:10164400A9E01C51020AADE01C51030AB1E01C518F
:10165400040AB5E01C51050AB9E01C51060ABDE0B4
:101664001C51070AC1E01C51080AC5E01C51090AB3
:10167400C9E01C510A0ACDE01C510B0AD1E0D7D7AE
:06168400000E006E1200D2
:10168A000450000A12E10550000A0FE10650000A50
:10169A000CE10750000A09E1FF0E006EFF0E016E11
:1016AA007F0E026EFF0E036EA8D0086A096A075001
:1016BA00D8B4F0EF0BF00350D8B4F5EF0BF00250AA
:1016CA0006180A6E028E068E0E6A02C008F001C063
:1016DA000CF000C00DF004500D5E0550D8A0053C7A
:1016EA000C5E0650D8A0063C085E086A0C6A0D6AB1
:1016FA00D8A087EF0BF0D8900232013200320832BC
:10170A00010E0E6E0750035ED8A094EF0BF07E0E0A
:10171A000E240326D8B0FAEF0BF09AEF0BF07E0EE8
:10172A000E240326D8A0FFEF0BF0180E0B6E0D3611
:10173A000C3608360036013602360E360450005E84
:10174A000550D8A0053C015E0650D8A0063C025EB2
:10175A0006340E120EA0B5EF0BF00D80C0EF0BF0A1
:10176A00045000260550D8B0053C01260650D8B0D2
:10177A00062802260D900B2E9CEF0BF0E6EF0BF0DD
:10178A00D8900036013602360E360450005E0550F7
:10179A00D8A0053C015E0650D8A0063C025E06347D
:1017AA000E10010B0D26D8B00C2AD8B4082AD8A4DA
:1017BA00E6EF0BF008320C320D32032AD8B4FAEFF6
:1017CA000BF00AAE089E0850026E0C50016E0D50C6
:1017DA00006E02EF0CF0010EDEEC04F002EF0CF0EA
:1017EA00020E99EC04F002EF0CF0040E6AEC06F01B
:0C17FA0002EF0CF0080EA0EC04F012004E
:101806000B800BAE0FEF0CF0026A0AAEFF0E026EF3
:0C181600016E006E0A360232FF0E120056
:101822000050086E0150006E016A026A036A0B6A78
:101832000C6A960E036E0A6A00C001F008C000F03E
:0A184200086A026A31EC06F0120099
:10184C001CC11FF11DC120F11EC121F10DD0A00E34
:10185C00C86EF5EC05F045D0280EC86EF5EC05F019
:10186C0040D0040E006E3FD01FC1F6FF20C1F7FF21
:10187C0021C1F8FF0900F5CF01F00900F5CF02F006
:10188C000900F5CF03F00900F5CF04F00450000A6D
:10189C0008E10350010A05E10250860A02E10150F9
:1018AC00A00AD5E01FC1F6FF20C1F7FF21C1F8FF48
:1018BC000900F5CF01F00900F5CF02F00900F5CFD2
:1018CC0003F00900F5CF04F00450000A08E10350BE
:1018DC00060A05E102501A0A02E10150800ABCE036
:0818EC00C0D7000E006E1200CF
:1018F4001CC11FF1E2EC04F0CDC023F11F0E246FD4
:10190400010E256F010E266F000E276F010E286F42
:10191400F4EC04F0CDC023F1200E0101246F010E7C
:10192400256F020E266F000E276F286B91EC05F0D1
:1019340020C11DF1000E01011E6F1DC101F0006ADE
:1019440000C01DF101C01EF121510012000E011250
:0A19540000C01DF101C01EF11200D9
:10195E0059D001011DB102D0929201D092820F0195
:10196E00259376D001011DB102D0929801D09288B4
:10197E006FD001011DB102D0969201D0968268D02F
:10198E0001011DB102D0949601D0948661D001015F
:10199E001DB102D0949801D094885AD001011DB186
:1019AE0002D0949A01D0948A53D001011DB102D075
:1019BE00949401D094844CD001011DB102D0939225
:1019CE0001D0938245D001011DB102D0949E01D069
:1019DE00948E3ED001011DB102D0949C01D0948C06
:1019EE0037D001011DB102D0949601D0948630D02B
:1019FE0001011DB102D0949801D0948829D0010E16
:101A0E00006E28D001011C51000AA3E01C51010AEE
:101A1E00A9E01C51020AADE01C51030AB1E01C51B1
:101A2E00040AB5E01C51050AB9E01C51060ABDE0D6
:101A3E001C51070AC1E01C51080AC5E01C51090AD5
:101A4E00C9E01C510A0ACDE01C510B0AD1E0D7D7D0
:061A5E00000E006E1200F4
:101A64005DD001011DB102D0929401D092840F0186
:101A740025957AD001011DB102D0969601D09686A3
:101A840073D001011DB102D0969401D096846CD01C
:101A940001011DB102D0949601D0948665D0010154
:101AA4001DB102D0949801D094885ED001011DB17B
:101AB40002D0949A01D0948A57D001011DB102D06A
:101AC400989001D0988050D001011DB102D0939418
:101AD40001D0938449D001011DB102D0989401D062
:101AE40098840F01239540D001011DB102D0989232
:101AF40001D098820F01239337D001011DB102D088
:101B0400949601D0948630D001011DB102D09498EE
:101B140001D0948829D0010E006E28D001011C51F7
:101B2400000A9FE01C51010AA5E01C51020AA9E029
:101B34001C51030AADE01C51040AB1E01C51050A12
:101B4400B5E01C51060AB9E01C51070ABDE01C515E
:101B5400080AC1E01C51090AC7E01C510A0ACDE079
:0E1B64001C510B0AD1E0D7D7000E006E120004
:101B72001DD013C11CF114C11DF115C11EF165DE8A
:101B820020D013C11CF114C11DF115C11EF188EC46
:101B920006F017D013C11CF114C11DF115C11EF1BD
:101BA200E8EC06F00ED0010E006E0BD001011251CE
:101BB200000ADFE01251010AE4E01251020AEAE0EF
:041BC200F2D7120044
:101BC6002FD013C11CF114C11DF115C11EF116C190
:101BD6001FF162EC09F032D013C11CF114C11DF1E2
:101BE60015C11EF116C11FF149EC08F027D013C12B
:101BF6001CF114C11DF115C11EF116C11FF1B6EC81
:101C060007F01CD013C11CF114C11DF115C11EF142
:101C160016C11FF13AEC07F011D0010E006E0ED07E
:101C260001011251000ACDE01251010AD5E012510C
:0E1C3600020ADDE01251100AE5E0EFD71200BD
:101C440015D013C11CF114C11DF19ADC1AD013C1B3
:101C54001CF114C11DF181DE14D013C11CF114C197
:101C64001DF1FEDE0ED0010E006E0BD001011251EB
:101C7400000AE7E01251010AEAE01251020AEDE01B
:041C8400F2D7120081
:101C88000A0E010112251C6F31DEC7DD000E046E3D
:101C9800500E056E430E066E8D0E076EE4EC09F0CD
:101CA800000E046EFF0E056E7F0E066E8E0E076E1A
:041CB800E8DC120052
:101CBC00060E010112251C6F17DEADDD000E046E41
:101CCC00000E056E000E066E840E076EE4EC09F035
:101CDC00000E046EFF0E056E7F0E066E8E0E076EE6
:041CEC00CEDC120038
:101CF0000101146B156B12C103F013C104F012C182
:101D000005F013C106F003C0E9FF04C0EAFFEE507E
:101D1000200A04E11451151101E110D0010E146FD5
:101D2000000E156F03C0E9FF04C0EAFF05C0E1FF24
:101D300006C0E2FFEECFE6FF054A062A03C001F027
:101D400004C002F0034A042A01C0E9FF02C0EAFF0E
:101D5000EE50000AD8E112C100F013C101F01200E8
:101D60000B6A0350D8B4F6EF0EF002500A6E028EE2
:101D70008E0E035E03AEFAEF0EF0036C080E035CEA
:101D8000D8A0D5EF0EF0036E013602C001F0026A52
:101D9000080E035CD8A0D5EF0EF0036E0136016A81
:101DA0000350D8A4D890DFEF0EF00350D8B4DFEF83
:101DB0000EF0D89002320132032ED9EF0EF00BBC98
:101DC00001A0ECEF0EF0D8A0ECEF0EF0012AD8B491
:101DD000022A02BE09EF0FF00AAE0EEF0FF0021E4C
:101DE000011E012AD8B4022A0EEF0FF0026A016A1E
:101DF0000EEF0FF00B800BAE12EF0FF0026A0AAE7F
:101E000012EF0FF0FF0E026E016E0A36023212EF71
:101E10000FF0010E0C6EF7DC14EF0FF0000E0C6EDD
:101E200014EF0FF0FF0E0C6E0150006E0250016EA9
:021E300012009E
:101E32000101186B196B12C11AF113C11BF1800E4B
:101E42001319006E800E005C02E1000E125D0BE2BF
:101E5200010E186F000E196F125100081A6F13C18C
:101E62001BF1000E1B571AC11CF11BC11DF114C13D
:101E72001EF115C11FF177EC0AF0060E166F000E67
:101E8200176F000E006E1751005C02E11651000838
:101E920019E216511425E16E17511521E26E010E59
:101EA200165D006E000E1759016E00501425E96E82
:101EB20001501521EA6EEECFE6FF010E165F000E0D
:101EC200175BDFD714C1E1FF15C1E2FF200EE66EFA
:101ED200185119111AE0166B176B16511425E96E79
:101EE20017511521EA6EEE50200A03E1164B172B0B
:101EF200F4D7010E165F000E175B16511425E16E22
:0C1F020017511521E26E2D0EE66E120044
:101F0E0012C113F1010112511E0A0FE1E2EC04F0AD
:101F1E00236B130E246F010E256F010E266F000E1C
:101F2E00276F286BF4EC04F00FD0E2EC04F0CDC078
:101F3E0023F1130E246F010E256F010E266F000E76
:0A1F4E00276F286BF4EC04F012007A
:101F5800E4C0E1FFE5C0E2FFE66AE2C000F0E3C0EA
:101F680001F026EC01F0DAEC06F0E4C0E1FFE5C090
:101F7800E2FF010EE66EE2C000F0E3C001F026ECDD
:081F880001F0DAEC06F0120092
:101F900018C1CDF015C11CF116C11DF117C11EF1FC
:101FA000FAEC08F012C11CF113C11DF114C11EF1AD
:061FB000C5EC08F0120070
:101FB60012C115F113C116F10D0E0101176F0A0EAC
:101FC600186F3AD015C11CF116C11DF176EC06F05A
:101FD6003ED015C1E9FF16C1EAFFEE520AE015C16F
:101FE6001CF116C11DF176EC06F00101154B162BFE
:101FF600F0D72DD015C1E9FF16C1EAFFEE520AE06F
:1020060015C11CF116C11DF176EC06F00101154B48
:10201600162BF0D70101170E1C6F010E1D6F76EC03
:1020260006F0180E01011C6F010E1D6F76EC06F00E
:102036000ED0060E006E0CD001011451000AC2E04B
:102046001451010AC6E01451020AD4E0F2D7006A1C
:02205600120076
:102058000101126B070E136F010E146FEFDD010102
:10206800126B010E136F146BE9DD0101126B800E08
:10207800136F240E146F000E156F77DD100E01011B
:10208800126F800E136F250E146F000E156F166FEA
:1020980096DD090E0B6E1E0E0C6EE40E0D6E0D2EE7
:0E20A800FED70C2EFCD70B2EFAD7000012002C
:1020B6000900F5CFE6FF0006FBE10106F9E1120093
:1020C6007F0E0101126F000E136F020E146F70DF88
:1020D600000E0101126F18DF720E0101126F000E61
:1020E600136F020E146F64DF110E0B6E3C0E0C6E36
:1020F600CB0E0D6E0D2EFED70C2EFCD70B2EFAD75F
:10210600040E0101126FD7DD00C0FAF001C0FBF02A
:1021160002C0FCF003C0FDF0090E0B6E1E0E0C6E25
:10212600E40E0D6E0D2EFED70C2EFCD70B2EFAD715
:102136000000310E0101126F000E136F010E146FB5
:1021460037DFFAC000F0FBC001F0FCC002F0FDC0B2
:1021560003F003DE00C012F101C013F1FE0E01010F
:10216600146F000E156F62DEFE0E126F000E136FF7
:10217600BCDDFE0E126F000E136F010E146F18DF1A
:10218600210E0101126F000E136F020E146F10DF85
:10219600040E0101126F75DD00C0FAF001C0FBF0FC
:1021A60002C0FCF003C0FDF0090E0B6E1E0E0C6E95
:1021B600E40E0D6E0D2EFED70C2EFCD70B2EFAD785
:1021C6000000150E0101126F000E136F010E146F41
:1021D600EFDEFAC000F0FBC001F0FCC002F0FDC06B
:1021E60003F0BBDD00C012F101C013F1FE0E0101C8
:1021F600146F000E156F1ADEFE0E126F000E136FAF
:1022060074DDFE0E126F000E136F010E146FD0DE1A
:10221600230E0101126F000E136F020E146FC8DE3B
:10222600040E0101126F2DDD00C0FAF001C0FBF0B3
:1022360002C0FCF003C0FDF0090E0B6E1E0E0C6E04
:10224600E40E0D6E0D2EFED70C2EFCD70B2EFAD7F4
:102256000000280E0101126F000E136F010E146F9D
:10226600A7DEFAC000F0FBC001F0FCC002F0FDC022
:1022760003F073DD00C012F101C013F1FE0E01017F
:10228600146F000E156FD2DDFE0E126F000E136F67
:102296002CDDFE0E126F000E136F010E146F88DE1A
:1022A600260E0101126F000E136F020E146F80DEF0
:1022B6008F0E0101126F000E136F020E146F78DE7F
:1022C600A30E0B6E570E0C6E020E0D6E0D2EFED764
:0C22D6000C2EFCD70B2EFAD700001200D3
:1022E2000C0E0101126F240E136F000E146F6C0E90
:1022F200156F240E166F000E176F100E186F47DE43
:10230200090E0B6E1E0E0C6EE40E0D6E0D2EFED718
:102312000C2EFCD70B2EFAD700001DDE4E0E01014B
:10232200126F000E136F020E146F44DE3C0E010199
:10233200126F000E136F020E146F3CDE600E01016D
:10234200126F000E136F020E146F34DE090E0B6E45
:102352001E0E0C6EE40E0D6E0D2EFED70C2EFCD74B
:082362000B2EFAD70000120057
:0E236A0042EC12F074DEB8DFA9DEFED7FFD71A
:1024840010EE15F0940E006E010E016E780EF66ECD
:0E249400230EF76E000EF86E5BEC10F01200D7
:0C237800416D706572616765203A2000BD
:02238400560001
:032386006D4100A6
:022389005700FB
:09238B00506F776572203A2000C2
:0B239400566F6C74616765203A2000F2
:10239F0020504143313933342020436C69636B2023
:0223AF0020000C
:1023B1002D2D2D2D2D2D2D2D2D2D2D2D2D2D2D2D4C
:0223C1002D00ED
:1023C3002D2D2D2D2D2D2D2D2D2D2D2D2D2D2D2D3A
:0223D3002D00DB
:0D23D5002052656672657368656421200002
:1023E20053656E6420636F6D6D616E64203A2000E8
:1023F2002D2D2D2D2D2D2D2D2D2D2D2D2D2D2D2D0B
:022402002D00AB
:0424040000000000D4
:0424080000000000D0
:10240C00980133018A0133015E0133013401330138
:10241C00260133015001330142013301A60133017E
:10242C0008023301FA01330124023301160233018D
:10243C00880200007E0200009E020000BC02000028
:10244C00B2020000A8020000160400000C040000F8
:10245C0002040000200400003E04000034040000CC
:10246C007C070000C008000068080000E0052D0192
:04247C00B0062D0178
:04248000A086010031
:020000040030CA
:0E00000015137F7CF98B91FFFFC0FFE0FF40DE
:00000001FF
